{
  "_format": "hh-sol-artifact-1",
  "contractName": "IntegrityGuard",
  "sourceName": "contracts/IntegrityGuard.sol",
  "abi": [
    {
      "inputs": [],
      "stateMutability": "nonpayable",
      "type": "constructor"
    },
    {
      "inputs": [
        {
          "internalType": "bytes32",
          "name": "_fileNameHash",
          "type": "bytes32"
        },
        {
          "internalType": "bytes32",
          "name": "_fileContentHash",
          "type": "bytes32"
        }
      ],
      "name": "addFile",
      "outputs": [],
      "stateMutability": "nonpayable",
      "type": "function"
    },
    {
      "inputs": [
        {
          "internalType": "address",
          "name": "",
          "type": "address"
        },
        {
          "internalType": "bytes32",
          "name": "",
          "type": "bytes32"
        }
      ],
      "name": "fileRegistry",
      "outputs": [
        {
          "internalType": "bytes32",
          "name": "fileNameHash",
          "type": "bytes32"
        },
        {
          "internalType": "bytes32",
          "name": "fileContentHash",
          "type": "bytes32"
        }
      ],
      "stateMutability": "view",
      "type": "function"
    },
    {
      "inputs": [
        {
          "internalType": "address",
          "name": "_walletAddress",
          "type": "address"
        },
        {
          "internalType": "bytes32",
          "name": "_fileNameHash",
          "type": "bytes32"
        }
      ],
      "name": "getFileHash",
      "outputs": [
        {
          "internalType": "bytes32",
          "name": "",
          "type": "bytes32"
        }
      ],
      "stateMutability": "view",
      "type": "function"
    },
    {
      "inputs": [],
      "name": "owner",
      "outputs": [
        {
          "internalType": "address",
          "name": "",
          "type": "address"
        }
      ],
      "stateMutability": "view",
      "type": "function"
    },
    {
      "inputs": [],
      "name": "test",
      "outputs": [
        {
          "internalType": "bytes32",
          "name": "",
          "type": "bytes32"
        }
      ],
      "stateMutability": "view",
      "type": "function"
    },
    {
      "inputs": [
        {
          "internalType": "address",
          "name": "_walletAddress",
          "type": "address"
        },
        {
          "internalType": "bytes32",
          "name": "_fileNameHash",
          "type": "bytes32"
        },
        {
          "internalType": "bytes32",
          "name": "_inputFileContentHash",
          "type": "bytes32"
        }
      ],
      "name": "verifyFileHash",
      "outputs": [
        {
          "internalType": "bool",
          "name": "",
          "type": "bool"
        }
      ],
      "stateMutability": "view",
      "type": "function"
    }
  ],
  "bytecode": "0x608060405234801561001057600080fd5b50336000806101000a81548173ffffffffffffffffffffffffffffffffffffffff021916908373ffffffffffffffffffffffffffffffffffffffff16021790555061053f806100606000396000f3fe608060405234801561001057600080fd5b50600436106100625760003560e01c806331324553146100675780634f25669314610097578063648605c2146100b35780638da5cb5b146100e4578063b19c4c6f14610102578063f8a8fd6d14610132575b600080fd5b610081600480360381019061007c9190610383565b610150565b60405161008e91906103d2565b60405180910390f35b6100b160048036038101906100ac91906103ed565b6101ae565b005b6100cd60048036038101906100c89190610383565b61022e565b6040516100db92919061042d565b60405180910390f35b6100ec61025f565b6040516100f99190610465565b60405180910390f35b61011c60048036038101906101179190610480565b610283565b60405161012991906104ee565b60405180910390f35b61013a6102e4565b60405161014791906103d2565b60405180910390f35b6000600260008473ffffffffffffffffffffffffffffffffffffffff1673ffffffffffffffffffffffffffffffffffffffff168152602001908152602001600020600083815260200190815260200160002060010154905092915050565b604051806040016040528083815260200182815250600260003373ffffffffffffffffffffffffffffffffffffffff1673ffffffffffffffffffffffffffffffffffffffff168152602001908152602001600020600084815260200190815260200160002060008201518160000155602082015181600101559050505050565b6002602052816000526040600020602052806000526040600020600091509150508060000154908060010154905082565b60008054906101000a900473ffffffffffffffffffffffffffffffffffffffff1681565b600081600260008673ffffffffffffffffffffffffffffffffffffffff1673ffffffffffffffffffffffffffffffffffffffff1681526020019081526020016000206000858152602001908152602001600020600101541490509392505050565b60015481565b600080fd5b600073ffffffffffffffffffffffffffffffffffffffff82169050919050565b600061031a826102ef565b9050919050565b61032a8161030f565b811461033557600080fd5b50565b60008135905061034781610321565b92915050565b6000819050919050565b6103608161034d565b811461036b57600080fd5b50565b60008135905061037d81610357565b92915050565b6000806040838503121561039a576103996102ea565b5b60006103a885828601610338565b92505060206103b98582860161036e565b9150509250929050565b6103cc8161034d565b82525050565b60006020820190506103e760008301846103c3565b92915050565b60008060408385031215610404576104036102ea565b5b60006104128582860161036e565b92505060206104238582860161036e565b9150509250929050565b600060408201905061044260008301856103c3565b61044f60208301846103c3565b9392505050565b61045f8161030f565b82525050565b600060208201905061047a6000830184610456565b92915050565b600080600060608486031215610499576104986102ea565b5b60006104a786828701610338565b93505060206104b88682870161036e565b92505060406104c98682870161036e565b9150509250925092565b60008115159050919050565b6104e8816104d3565b82525050565b600060208201905061050360008301846104df565b9291505056fea2646970667358221220b81c3a4c4194694150b00e14d35657f89e2d276a686c5e5285971855fd983df764736f6c63430008130033",
  "linkReferences": {},
  "deployedLinkReferences": {}
}